:100000000C9462000C948A000C948A000C948A0070
:100010000C948A000C948A000C948A000C948A0038
:100020000C948A000C948A000C948A000C948A0028
:100030000C948A000C948A000C948A000C948A0018
:100040000C9450050C948A000C941E050C94F80432
:100050000C948A000C948A000C948A000C948A00F8
:100060000C948A000C948A000000000024002700F1
:100070002A0000000000250028002B0000000000DE
:1000800023002600290004040404040404040202DA
:100090000202020203030303030301020408102007
:1000A0004080010204081020010204081020000012
:1000B0000008000201000003040700000000000027
:1000C00000009A0511241FBECFEFD8E0DEBFCDBFE0
:1000D00015E0A0E0B1E0EEE8F1E102C005900D927C
:1000E000AE37B107D9F726E0AEE7B5E001C01D9203
:1000F000A339B207E1F710E0C2E6D0E004C02197CF
:10010000FE010E94BF08C136D107C9F70E94270629
:100110000C94C5080C94000096E0899FD00111242E
:10012000AC5DB94F90967C936E935F9791E09196FA
:100130009C939197E0919106F09192069091900690
:10014000992339F0309751F0811108C08091400611
:100150000994309719F05C968C91FACF0895CF925C
:10016000DF92EF92FF920F931F9396E0899FF00129
:100170001124EC5DF94F11A2278D30A121303105FA
:1001800051F178F02230310509F451C023303105A6
:1001900009F452C01F910F91FF90EF90DF90CF9024
:1001A00008956623B9F361E070E00E948C002FB7D8
:1001B000F8948091830590918405A0918505B09174
:1001C00086052FBF80937C0690937D06A0937E06C4
:1001D000B0937F06DFCF9FB7F894C0908305D0908F
:1001E0008405E0908505F09086059FBF00917C0610
:1001F00010917D0620917E0630917F06C01AD10AAB
:10020000E20AF30A00918E0610918F0630E020E09A
:100210000C151D052E053F0550F462E070E01F919E
:100220000F91FF90EF90DF90CF900C948C006111B4
:10023000B1CF63E070E0F3CF70E060E0F0CFAF9259
:10024000BF92CF92DF92EF92FF920F931F93CF93C3
:10025000DF936C017B018B01040F151FEB015E0125
:10026000AE18BF08C017D10759F06991D601ED91BA
:10027000FC910190F081E02DC6010995892B79F759
:10028000C501DF91CF911F910F91FF90EF90DF900B
:10029000CF90BF90AF900895FC01538D448D252FD2
:1002A00030E0842F90E0821B930B541710F0CF9610
:1002B000089501970895FC01918D828D981761F042
:1002C000A28DAE0FBF2FB11D5D968C91928D9F5F59
:1002D0009F73928F90E008958FEF9FEF0895FC0138
:1002E000918D828D981731F0828DE80FF11D858DEB
:1002F00090E008958FEF9FEF0895FC01918D228D7E
:10030000892F90E0805C9F4F821B91098F73992702
:10031000089587E895E00E947D0121E0892B09F48A
:1003200020E0822F089580E090E0892B29F00E9440
:10033000890181110C9400000895FC01A48DA80F7F
:10034000B92FB11DA35ABF4F2C91848D90E0019617
:100350008F739927848FA689B7892C93A089B18937
:100360008C91837080648C93938D848D981306C0D8
:100370000288F389E02D80818F7D80830895EF923C
:10038000FF920F931F93CF93DF93EC0181E0888F4F
:100390009B8D8C8D98131AC0E889F989808185FF1F
:1003A00015C09FB7F894EE89FF896083E889F989C1
:1003B00080818370806480839FBF81E090E0DF91C3
:1003C000CF911F910F91FF90EF900895F62E0B8D16
:1003D00010E00F5F1F4F0F731127E02E8C8D8E11D1
:1003E0000CC00FB607FCFACFE889F989808185FF38
:1003F000F5CFCE010E949D01F1CFEB8DEC0FFD2FCB
:10040000F11DE35AFF4FF0829FB7F8940B8FEA89F2
:10041000FB8980818062CFCFCF93DF93EC01888D01
:100420008823B9F0AA89BB89E889F9898C9185FD6F
:1004300003C0808186FD0DC00FB607FCF7CF8C91FD
:1004400085FFF2CF808185FFEDCFCE010E949D0117
:10045000E9CFDF91CF910895833081F028F4813086
:1004600099F08230A9F008958730A9F08830C9F05A
:100470008430B1F4809180008F7D03C08091800032
:100480008F7780938000089584B58F7784BD089519
:1004900084B58F7DFBCF8091B0008F778093B000C3
:1004A00008958091B0008F7DF9CFCF93DF93282FEF
:1004B00030E0F901E255FF4F8491F901E656FF4F14
:1004C000D491F901EA57FF4FC491CC23A1F08111D7
:1004D0000E942C02EC2FF0E0EE0FFF1FE458FF4FBC
:1004E000A591B491EC91ED2381E090E009F480E0D6
:1004F000DF91CF91089580E090E0FACF862F0C94A1
:1005000055021F93CF93DF93282F30E0F901E25576
:10051000FF4F8491F901E656FF4FD491F901EA5754
:10052000FF4FC491CC23A9F0162F81110E942C02F9
:10053000EC2FF0E0EE0FFF1FEE58FF4FA591B491A6
:100540008FB7F894EC91111108C0D095DE23DC939D
:100550008FBFDF91CF911F910895DE2BF8CF862FAB
:10056000642F0C948102CF93DF9390E0FC01E65658
:10057000FF4F24918A579F4FFC0184918823C9F033
:1005800090E0880F991FFC01E859FF4FA591B491A5
:10059000FC01EE58FF4FC591D49161110DC09FB77A
:1005A000F8948C91209582238C938881282328832A
:1005B0009FBFDF91CF910895623051F49FB7F894B7
:1005C0003C91822F809583238C93E8812E2BEFCF53
:1005D0008FB7F894EC912E2B2C938FBFEACF862FF8
:1005E000642F0C94B3026F927F928F929F92AF927E
:1005F000BF92CF92DF92EF92FF920F931F93CF9310
:10060000DF9381E0809390068FB7F8944091830543
:100610005091840560918505709186058FBF80910A
:10062000800690918106A0918206B0918306481BB6
:10063000590B6A0B7B0B80918C0690918D06B0E074
:10064000A0E084179507A607B70708F01DC1C0E012
:1006500080918A06C81760F4E0918606F0918706BB
:10066000EC0FF11D62E080810E94B302CF5FF0CFFA
:10067000712C812C912C5401839480918B067816D7
:1006800008F05FC0072D10E0E0918806F091890620
:10069000E00FF11F61E080810E94B302E0918806C3
:1006A000F0918906E00FF11F60E080810E948102D5
:1006B000D501C401072C04C0880F991FAA1FBB1FB6
:1006C0000A94D2F76C017C01E094F094612C809143
:1006D0008A066816F8F4C62DD0E0E0918606F091FF
:1006E0008706EC0FFD1F80810E9455022496CC0FD7
:1006F000DD1FCC5DD94F892B41F4888199818C29EC
:100700009D29998388836394E2CF888199818E2182
:100710009F21F7CFE0918806F0918906E00FF11F45
:1007200061E080810E948102809188069091890613
:10073000080F191F60E0F80180810E94B3027394D2
:100740009CCFC4E2D6E0FE018FEF9FEF278D30A152
:10075000232B21F4148E968F858F11A2369626E0D6
:10076000E036F20799F7F12C96E0D92E80918A06AF
:10077000F81608F050C0E12C0F2D10E0000F111FEB
:10078000045D194F20918B06E21608F042C0F80173
:10079000608171810E2C02C0769567950A94E2F70C
:1007A000F29E900111242E0D311DE4E2F6E080E06E
:1007B000458D568D2417350709F46AC08F5F36962C
:1007C0008A30B1F760FF23C0E4E2F6E090E080E019
:1007D000448D411117C0E0918406F0918506E20F27
:1007E000F31F4081D89EF001D99EF00D1124EC5DDD
:1007F000F94F448F368F258F10A2178E61E00E942B
:10080000AF0005C0019636968A30910509F7E3944A
:10081000B9CFF394ABCF80E099A19111892F26969F
:10082000F6E0C036DF07C1F79FB7F8944091830523
:100830005091840560918505709186059FBF409316
:100840008006509381066093820670938306882306
:10085000D9F0809145068823B9F0809143069091A4
:100860004406019789F480914006DF91CF911F9152
:100870000F91FF90EF90DF90CF90BF90AF909F903F
:100880008F907F906F9008951092900680E0EDCF4A
:100890006170B5CFFC0101900020E9F73197AF01FD
:1008A000481B590BBC0187E895E00C941F018F92FF
:1008B0009F92AF92BF920F931F93CF93DF93CDB7C9
:1008C000DEB7A1970FB6F894DEBF0FBECDBF19A259
:1008D000423008F44AE08E010F5D1F4F842E912CA8
:1008E000B12CA12CA50194010E948E08E62FB9011C
:1008F000CA01EA30F4F4E05DD801EE938D01232BB8
:10090000242B252B79F790E080E0109719F0CD018A
:100910000E944A04A1960FB6F894DEBF0FBECDBF69
:10092000DF91CF911F910F91BF90AF909F908F90CB
:100930000895E95CE1CFCF92DF92EF92FF92CF93DF
:10094000DF936B017C016DE287E895E00E94BF01B7
:10095000EC0166277727CB016C197D098E099F0969
:100960004AE00E9457048C0F9D1FDF91CF91FF90AA
:10097000EF90DF90CF900895CF93DF930E944A04C9
:10098000EC0188E391E00E944A048C0F9D1FDF91E7
:10099000CF9108950F931F93CF93DF938C01EB01B9
:1009A0008BE391E00E944A04B801110F880B990B68
:1009B00097FF16C00E949B0485E491E00E944A04C0
:1009C000BE01DD0F880B990B97FF0EC00E949B04A0
:1009D00088E391E0DF91CF911F910F910C944A042D
:1009E0004AE00E945704E8CF4AE00E945704F0CF43
:1009F0001F920F920FB60F9211242F933F934F9394
:100A00005F936F937F938F939F93AF93BF93EF9376
:100A1000FF9387E895E00E949D01FF91EF91BF91C0
:100A2000AF919F918F917F916F915F914F913F9186
:100A30002F910F900FBE0F901F9018951F920F923D
:100A40000FB60F9211242F938F939F93EF93FF93E1
:100A5000E0919705F09198058081E0919D05F091D6
:100A60009E0582FD1BC090818091A0058F5F8F73D2
:100A70002091A105821741F0E091A005F0E0E9572F
:100A8000FA4F958F8093A005FF91EF919F918F91E1
:100A90002F910F900FBE0F901F9018958081F4CF6B
:100AA0001F920F920FB60F9211242F933F938F93A3
:100AB0009F93AF93BF938091830590918405A091FC
:100AC0008505B09186053091820523E0230F2D37EF
:100AD00058F50196A11DB11D2093820580938305D1
:100AE00090938405A0938505B093860580917E053B
:100AF00090917F05A0918005B09181050196A11D7F
:100B0000B11D80937E0590937F05A0938005B093DF
:100B10008105BF91AF919F918F913F912F910F9040
:100B20000FBE0F901F90189526E8230F0296A11D67
:100B3000B11DD2CF10928A051092890588EE93E0FC
:100B4000A0E0B0E080938B0590938C05A0938D0579
:100B5000B0938E0580E291E090938805809387059D
:100B600085EC90E0909394058093930584EC90E05D
:100B7000909396058093950580EC90E0909398056E
:100B80008093970581EC90E090939A058093990566
:100B900082EC90E090939C0580939B0586EC90E01E
:100BA00090939E0580939D051092A0051092A1053B
:100BB0001092A2051092A3051092260610922A0602
:100BC0001092290610922B0682E391E0909325065D
:100BD00080932406E0E4F6E01082148213821582EA
:100BE000369686E0EC37F807B9F784E091E0909309
:100BF00087068093860680E091E090938906809333
:100C0000880684E080938A0680938B0688E091E0D2
:100C100090938506809384068AE090E090938D06F9
:100C200080938C0684EF91E090938F0680938E06DC
:100C300010929206109291061092800610928106F0
:100C4000109282061092830610929006089578946E
:100C500084B5826084BD84B5816084BD85B58260C1
:100C600085BD85B5816085BD80916E008160809372
:100C70006E001092810080918100826080938100DB
:100C800080918100816080938100809180008160EB
:100C9000809380008091B10084608093B100809146
:100CA000B00081608093B00080917A00846080936E
:100CB0007A0080917A00826080937A0080917A0035
:100CC000816080937A0080917A00806880937A00B6
:100CD0001092C100E0919705F091980582E0808321
:100CE000E0919305F09194051082E0919505F091C3
:100CF00096058FEC808310929F05E0919B05F09103
:100D00009C0586E08083E0919905F0919A058081A9
:100D100080618083E0919905F0919A0580818860D7
:100D20008083E0919905F0919A05808180688083A5
:100D3000E0919905F0919A0580818F7D808380E50F
:100D400091E00E94BC0483E0882E912CA12CB12C50
:100D500090E0C92E90E0D92E0E94F302882309F476
:100D6000BFC0813331F0823309F4CDC08BE595E00B
:100D7000B5C082E991E00E94BC0470E060E090E0C0
:100D800080E00E94CA04F12CE12C10E000E0C0E0F9
:100D90000330110509F494C083E0E816F10409F466
:100DA000ABC00E94F302D82FC11114C08EE491E0B1
:100DB0000E94BC048EE991E00E94BC0480EB91E0AB
:100DC0000E94BC048AEB91E00E94BC0483EC91E099
:100DD0000E94BC04C1E0DD23D9F20E940408A501F1
:100DE00094010E945C08C1E3C60F8EE491E00E946A
:100DF000BC048EEC91E00E94BC048EEF91E0D133F4
:100E000041F088E192E0D23321F0D33321F481E341
:100E100092E00E944A048FEC8D0F8330F8F48CE44A
:100E200092E0C133E9F088E692E0C233C9F083E88A
:100E300092E0C333A9F0DC1316C08EE491E00E9467
:100E4000BC0483ED92E00E94BC048EE491E00E9419
:100E5000BC04B701C8010E94CA0499CF80EA92E09D
:100E60000E94BC04E8CFD13389F4C333B9F48EE4D3
:100E700091E00E94BC048BED92E00E94BC048EE4E1
:100E800091E00E94BC040F5F1F4FE3CFD23309F003
:100E900065C0C13361F3C333E1F602C0C233C9F6A2
:100EA0008EE491E00E94BC0484EE92E00E94BC04B7
:100EB0008EE491E00E94BC048FEFE81AF80AC9CFD3
:100EC0008EE491E00E94BC048EEE92E00E94BC048D
:100ED0008EE491E00E94BC0487E693E00E94BC048B
:100EE000C114D10409F438CF0E948901882309F480
:100EF00033CF0E94000030CF8EE491E00E94BC040A
:100F000085E293E0E3CF8EE491E00E94BC0482EAA4
:100F100093E00E94BC0484EB93E00E94BC048CEE3E
:100F200093E00E94BC048AE294E00E94BC0488E83A
:100F300094E00E94BC0480EC94E00E94BC0487EE24
:100F400094E00E94BC0489E295E00E94BC048EE417
:100F500091E00E94BC048CE591E0C0CFD33309F04E
:100F600078CFC23309F483CFC13309F072CF98CF61
:100F70008F929F92AF92BF92CF92DF92EF92FF92A9
:100F8000CF93DF93EC01688179818A819B81611520
:100F900071058105910521F464E279ED8BE597E017
:100FA0002DE133EF41E050E00E945C0849015A0115
:100FB0009B01AC01A7EAB1E40E947B086B017C01B4
:100FC000ACEEB4EFA50194010E948908C60ED71EAD
:100FD000E81EF91EF7FE06C081E0C81AD108E10834
:100FE00080E8F80AC882D982EA82FB82C701B6018A
:100FF0009F77DF91CF91FF90EF90DF90CF90BF90E0
:10100000AF909F908F9008958F929F92AF92BF92D2
:10101000CF92DF92EF92FF926091180170911901C7
:1010200080911A0190911B0161157105810591054F
:1010300021F464E279ED8BE597E02DE133EF41E0B7
:1010400050E00E945C0849015A019B01AC01A7EAEB
:10105000B1E40E947B086B017C01ACEEB4EFA5010A
:1010600094010E948908C60ED71EE81EF91EF7FEDD
:1010700006C081E0C81AD108E10880E8F80AC092E9
:101080001801D0921901E0921A01F0921B01C701D8
:10109000B6019F77FF90EF90DF90CF90BF90AF9019
:1010A0009F908F9008956093180170931901809319
:1010B0001A0190931B010895052E97FB1EF40094CE
:1010C0000E94730857FD07D00E948E0807FC03D0CA
:1010D0004EF40C94730850954095309521953F4FF0
:1010E0004F4F5F4F089590958095709561957F4F14
:1010F0008F4F9F4F08950E94B008A59F900DB49FF9
:10110000900DA49F800D911D11240895B7FF0C949C
:101110007B080E947B08821B930B0895A1E21A2E84
:10112000AA1BBB1BFD010DC0AA1FBB1FEE1FFF1F8B
:10113000A217B307E407F50720F0A21BB30BE40BDB
:10114000F50B661F771F881F991F1A9469F7609522
:101150007095809590959B01AC01BD01CF010895DC
:10116000A29FB001B39FC001A39F700D811D1124E8
:10117000911DB29F700D811D1124911D0895EE0FD8
:0E118000FF1F0590F491E02D0994F894FFCF25
:10118E00060504020C0B08073738392F343536584C
:10119E003132332D50303D2B010000000000000095
:1011AE00BF011F014C010C027D015B016F010000AC
:1011BE000000EF02AF027E020D0A004A75676164FD
:1011CE006F723A2000204D617175696E613A200090
:1011DE004269656E76656E69646F21205061726139
:1011EE0020696E6963696172206A7565676F206F29
:1011FE007072696D6120312C20706172612076658C
:10120E0072207265676C6173206F7072696D6120F8
:10121E003200436F6D656E63656D6F732100456CB3
:10122E0069676520756E61206F7063696F6E3A0035
:10123E00312D2050696564726100322D205061702D
:10124E00656C00332D2054696A65726173002A2A19
:10125E002A2A2A2A2A2A2A2A2A2A2A2A2A2A2A2AE0
:10126E002A2A2A2A2A2A2A2A2A2A2A2A2A2A2A2AD0
:10127E002A2A2A2A2A2A2A2A2A2A2A2A2A00456C8D
:10128E00204A756761646F7220656C6967696F20AB
:10129E005049454452412000456C204A75676164AF
:1012AE006F7220656C6967696F20504150454C2004
:1012BE0000456C204A756761646F7220656C6967C2
:1012CE00696F2054494A45524153200059206C61A0
:1012DE00204D617175696E6120656C6967696F205B
:1012EE005049454452412E0059206C61204D617188
:1012FE0075696E6120656C6967696F205041504554
:10130E004C2E0059206C61204D617175696E612003
:10131E00656C6967696F2054494A455241532E00E6
:10132E00456C65676973746520756E61206F7063B7
:10133E00696F6E20696E76616C6964612C207675BA
:10134E00656C7665206120696E74656E7461726C71
:10135E006F2E00454D50415445210047414E41539B
:10136E0054452100504552444953544521002A2AE0
:10137E002A2A2A2A2A2A2046454C494349544143BF
:10138E00494F4E45532C204841532047414E41442E
:10139E004F20454C204A5545474F21202A2A2A2ABC
:1013AE002A2A2A2A002A2A2A2A2A2A2A2A204C418A
:1013BE004D454E5441424C454D454E5445205445A5
:1013CE0020484120544F4341444F205045524445FC
:1013DE005220454C204A5545474F203A28202A2A6C
:1013EE002A2A2A2A2A2A005061726120766F6C7688
:1013FE0065722061206A75676172206F7072696D07
:10140E006120312C207061726120766572206C61D2
:10141E0073207265676C6173206F7072696D6120E5
:10142E0032005245474C41532044454C204A5545C5
:10143E00474F3A00456E205069656472612C20500A
:10144E006170656C206F2054696A657261732074D7
:10145E006520656E6672656E7461726173206120BF
:10146E006C61206D617175696E612E00416D626FE8
:10147E007320656C65676972616E20616C206D69A1
:10148E00736D6F207469656D706F20656E74726513
:10149E00207069656472612C20706170656C206FBC
:1014AE002074696A657261732E004C6120706965E3
:1014BE006472612061706C617374612061206C6173
:1014CE00732074696A657261732C206C6173207469
:1014DE00696A6572617320636F7274616E20616CEC
:1014EE0020706170656C207920656C20706170656C
:1014FE006C20656E7675656C76652061206C61205A
:10150E007069656472612E005369206C6F7320647C
:10151E006F7320656C6967656E206C6F206D6973E3
:10152E006D6F2C20656C20726573756C7461646FC1
:10153E00207365726120756E20656D706174650033
:10154E0047616E61726120717569656E206C6C65A4
:10155E00677565207072696D65726F20612033202A
:10156E0070756E746F73005061726120656C656783
:10157E0069722070696564726120646562657320AA
:10158E006F7072696D697220312C207061726120EA
:10159E00506170656C203220792070617261205428
:1015AE00696A65726173203300456C6967652063F3
:1015BE006F6E206375696461646F20792074726147
:1015CE0074612064652076656E6365722061206C9F
:1015DE0061206D617175696E6121004861206F70C7
:1015EE0072696D69646F20756E61206F7063696FCB
:0E15FE006E20696E636F727265637461000027
:00000001FF
